:100000000C9462000C9401070C94DA060C948A009C
:100010000C948A000C94980A0C948A000C94080A98
:100020000C948A000C948A000C948A000C94280783
:100030000C948A000C9494090C948A000C948A0005
:100040000C9490060C948A000C9430040C940A04CE
:100050000C948A000C948A000C948A000C948A00F8
:100060000C94E9070C948A000000000800020100CB
:100070000003040700000000000000000000000072
:1000800023002600290004040404040404040202DA
:100090000202020203030303030301020408102007
:1000A0004080010204081020010204081020000012
:1000B0000000240027002A0000000000250028007E
:1000C0002B00831F11241FBECFEFD8E0DEBFCDBFB2
:1000D00011E0A0E0B1E0EAECF6E402C005900D9278
:1000E000A63BB107D9F726E0A6EBB1E001C01D920F
:1000F000AF3BB207E1F710E0C2E6D0E004C02197C1
:10010000FE010E945F20C136D107C9F70E94A111EC
:100110000C9463230C940000CF92DF92EF92FF9235
:100120000F931F93CF93DF936C017A018B01C0E093
:10013000D0E0CE15DF0589F0D8016D918D01D60193
:10014000ED91FC910190F081E02DC6010995892B7C
:1001500011F47E0102C02196ECCFC701DF91CF914F
:100160001F910F91FF90EF90DF90CF900895FC01C9
:10017000918D828D981761F0828DDF01A80FB11DDE
:100180005D968C91928D9F5F9F73928F90E0089502
:100190008FEF9FEF0895FC01918D828D981731F0BC
:1001A000828DE80FF11D858D90E008958FEF9FEF10
:1001B0000895FC01918D228D892F90E0805C9F4FE6
:1001C000821B91098F739927089583E096E00E941E
:1001D000D90021E0892B09F420E0822F0895FC0149
:1001E000848DDF01A80FB11DA35ABF4F2C91848DC0
:1001F00090E001968F739927848FA689B7892C93F5
:10020000A089B1898C9180648C93938D848D98138F
:1002100006C00288F389E02D80818F7D8083089558
:10022000EF92FF920F931F93CF93DF93EC0181E046
:10023000888F9B8D8C8D981305C0E889F989808102
:1002400085FD24C0F62E0B8D10E00F5F1F4F0F733E
:100250001127E02E8C8DE8120CC00FB607FCFACFE8
:10026000E889F989808185FFF5CFCE010E94EF00F2
:10027000F1CF8B8DFE01E80FF11DE35AFF4FF082A5
:100280000B8FEA89FB898081806207C0EE89FF8934
:100290006083E889F98980818064808381E090E0CF
:1002A000DF91CF911F910F91FF90EF900895CF9321
:1002B000DF93EC01888D8823C9F0EA89FB8980816E
:1002C00085FD05C0A889B9898C9186FD0FC00FB640
:1002D00007FCF5CF808185FFF2CFA889B9898C9181
:1002E00085FFEDCFCE010E94EF00E7CFDF91CF91E8
:1002F000089580E090E0892B29F00E94E5008111AB
:100300000C9400000895833081F028F4813099F036
:100310008230A1F008958730A9F08830B9F0843098
:10032000D1F4809180008F7D03C0809180008F7711
:1003300080938000089584B58F7702C084B58F7D47
:1003400084BD08958091B0008F7703C08091B00084
:100350008F7D8093B0000895089585ED8093BC0053
:100360008091BC0084FDFCCF1092FE050895409161
:100370006705262F30E0240F311D21323105DCF4D2
:100380002091FE052430C9F4FC0180E090E086173E
:1003900058F4309167052191DC01A95BBA4FA30F96
:1003A000B11D2C930196F3CF80916705680F609380
:1003B000670580E0089581E0089582E00895E09166
:1003C000BC01F091BD01309729F010920006109207
:1003D000FF0509940895AC01E091BA01F091BB01C9
:1003E0003097E1F090910206809101069817B0F0E5
:1003F00090E0292F30E02617370754F4DA01A20FD6
:10040000B31F8C91D901AA56BA4F8C939F5FF1CF3D
:100410001092020660930106CB0109940895089595
:10042000E091020680910106E81730F4F0E0EA5608
:10043000FA4F808190E008958FEF9FEF089590919B
:10044000020680910106981750F4E92FF0E0EA5671
:10045000FA4F208130E09F5F9093020602C02FEF99
:100460003FEFC90108958091010690E020910206B6
:10047000821B91090895CF92DF92EF92FF920F9322
:100480001F93CF93DF937C01262F972F8A018091B2
:10049000DA05882391F0C62FD72F6E01C40ED51E22
:1004A000CC15DD0571F06991D701ED91FC910190BA
:1004B000F081E02DC7010995F3CF642F822F0E94B0
:1004C000B701C801DF91CF911F910F91FF90EF907D
:1004D000DF90CF900895CF93DF931F92CDB7DEB713
:1004E00069832091DA052223D1F02091FF05203283
:1004F00040F021E030E0FC013383228380E090E093
:1005000015C080910006E82FF0E0E552FA4F99817E
:1005100090838F5F809300068093FF0505C061E0A4
:10052000CE0101960E94B70181E090E00F90DF912B
:10053000CF91089580E991E00895539A089580E954
:1005400091E00895559A0895809151049091520434
:100550000196909352048093510408958091700401
:1005600090917104019731F460915A0487EA96E002
:100570000E946B0280917004909171048330910508
:1005800011F0C89741F443E050E06BE574E087EA6E
:1005900096E00E943B02809170049091710407974D
:1005A00061F443E050E065E574E087EA96E00E947C
:1005B0003B0210927104109270048091700490912B
:1005C00071048830910511F0449741F444E050E003
:1005D0006BE574E087EA96E00E943B02809170042C
:1005E000909171044E9741F449E050E06BE574E05E
:1005F00087EA96E00E943B0280917004909171041A
:10060000459751F445E150E06BE574E087EA96E0E8
:100610000E943B0210925B048091700490917104DF
:100620000A9781F444E050E06BE574E087EA96E0D5
:100630000E943B02109254041092530410927104D1
:100640001092700480917004909171040B9771F472
:1006500042E050E06BE474E087EA96E00E943B02DF
:1006600010924B04109271041092700480917004E7
:10067000909171040C9771F443E050E068E474E0E9
:1006800087EA96E00E943B0210924804109271049F
:100690001092700408950F931F93CF93DF9301E09E
:1006A00010E08091010620910206821731F190E05E
:1006B000821B9109049761F410927B0410927A04D2
:1006C00010927D0410927C041093590400935804F6
:1006D000C0917C04D0917D04CE01019690937D045D
:1006E00080937C0487EA96E00E941F02CC0FDD1FF6
:1006F000C059DB4F99838883D4CFDF91CF911F916D
:100700000F91089580E090E008950E9478220F9361
:10071000CF93DF9300D01F92CDB7DEB7AB01198224
:100720001A821B8200E09E012F5F3F4FB9010E9499
:10073000380D0F900F900F90DF91CF910F9108958A
:100740000F9301E00E94380D0F9108950F9300E080
:100750000E94380D0F9108950F93CF93DF9300D02F
:100760001F92CDB7DEB7AB0119821A821B8200E05F
:100770009E012F5F3F4FB9010E94E10A0F900F9039
:100780000F90DF91CF910F9108950F9301E00E9498
:10079000E10A0F9108950F9300E00E94E10A0F9182
:1007A00008950F931F93CF93DF93EC018881998174
:1007B000009729F02A813B812617370788F48B019F
:1007C0006F5F7F4F0E94AE21009761F0998388830D
:1007D0001B830A832C813D81232B11F4FC011082A1
:1007E00081E001C080E0DF91CF911F910F910895CA
:1007F000CF93DF93EC0188819981009711F00E94DB
:100800001621198218821D821C821B821A82DF9196
:10081000CF9108951F920F920FB60F9211242F932C
:100820003F934F935F936F937F938F939F93AF9378
:10083000BF93EF93FF9383E096E00E94EF00FF9158
:10084000EF91BF91AF919F918F917F916F915F9148
:100850004F913F912F910F900FBE0F901F901895C1
:100860001F920F920FB60F9211242F938F939F9385
:10087000EF93FF93E0911306F09114068081E091CD
:100880001906F0911A0682FD12C0908180911C0613
:100890008F5F8F7320911D06821751F0E0911C0627
:1008A000F0E0ED5FF94F958F80931C0601C08081C9
:1008B000FF91EF919F918F912F910F900FBE0F900D
:1008C0001F901895CF93DF93282F30E0F901E85956
:1008D000FF4F8491F901E656FF4FD491F901EA5791
:1008E000FF4FC491CC2391F081110E948301EC2F22
:1008F000F0E0EE0FFF1FE458FF4FA591B491EC918B
:10090000ED2381E090E021F480E002C080E090E0FF
:10091000DF91CF910895CF93DF9382E00E9462042C
:10092000EC0183E00E9462048C239D23019719F45B
:1009300081E080933105DF91CF9108951F93CF938C
:10094000DF93282F30E0F901E859FF4F8491F90136
:10095000E656FF4FD491F901EA57FF4FC491CC23DB
:10096000C9F0162F81110E948301EC2FF0E0EE0FE9
:10097000FF1FE854FF4FA591B4918FB7F894111160
:1009800005C09C91ED2FE095E92302C0EC91ED2B81
:10099000EC938FBFDF91CF911F910895CF93DF9399
:1009A00090E0FC01E656FF4F2491FC01EA57FF4F0F
:1009B0008491882361F190E0880F991FFC01E25532
:1009C000FF4FC591D491FC01E854FF4FA591B4911C
:1009D000611109C09FB7F89488812095822388838C
:1009E000EC912E230BC0623061F49FB7F8943881EC
:1009F000822F809583238883EC912E2B2C939FBF8D
:100A000006C08FB7F894E8812E2B28838FBFDF9123
:100A1000CF910895CF92DF92EF92FF920F931F93A1
:100A2000CF93DF93EC01E62E88E0F82E93ECC92EED
:100A3000D12C61E088810E94CE04C6010197F1F7B4
:100A4000E0FE02C060E001C061E089810E94CE0446
:100A500003EC10E0C6010197F1F760E088810E9485
:100A6000CE04C6010197F1F7E694FA94F110E1CFB4
:100A700061E088810E94CE0460E089810E94CE04FA
:100A8000C8010197F1F760E088810E94CE04C80197
:100A90000197F1F789810E946204F82E811104C048
:100AA00061E089810E94CE0403EC10E0C801019747
:100AB000F1F761E088810E94CE04F8013197F1F7E7
:100AC00081E0F11001C080E0DF91CF911F910F9183
:100AD000FF90EF90DF90CF9008950F931F93CF93E7
:100AE000DF938C0161E0FC0181810E94CE04C3ECA4
:100AF000D0E0CE010197F1F760E0F80180810E941B
:100B0000CE04CE010197F1F760E0F80181810E94E7
:100B1000CE042197F1F7DF91CF911F910F910895A6
:100B200061E0FC0181810E94CE0483EC90E001979A
:100B3000F1F708958E3008F08E50877080648093AE
:100B40007C0080917A00806480937A0080917A00A2
:100B500086FDFCCF809178002091790090E0922B67
:100B600008953FB7F89480918C0590918D05A091E0
:100B70008E05B0918F0526B5A89B05C02F3F19F0B3
:100B80000196A11DB11D3FBFBA2FA92F982F88270D
:100B9000820F911DA11DB11DBC01CD0142E0660F68
:100BA000771F881F991F4A95D1F708958F929F92BA
:100BB000AF92BF92CF92DF92EF92FF926B017C01D6
:100BC0000E94B1054B015C01C114D104E104F104A0
:100BD000F1F00E94B105DC01CB0188199909AA093D
:100BE000BB09883E9340A105B10570F321E0C21A0C
:100BF000D108E108F10888EE880E83E0981EA11C58
:100C0000B11CC114D104E104F10419F7DDCFFF9048
:100C1000EF90DF90CF90BF90AF909F908F9008950E
:100C20002FB7F8946091900570919105809192058D
:100C3000909193052FBF0895CF92DF92EF92FF928C
:100C40000E9410066B017C0160934205709343057E
:100C5000809344059093450582E00E94620490933E
:100C6000410580934005892B69F060E088E00E948F
:100C70009E04C0923C05D0923D05E0923E05F09264
:100C80003F050CC0C0923805D0923905E0923A0574
:100C9000F0923B0561E088E00E949E0480913C0553
:100CA00090913D05A0913E05B0913F0540913805DA
:100CB0005091390560913A0570913B0548175907E5
:100CC0006A077B0740F5841B950BA60BB70B809337
:100CD000340590933505A0933605B09337054091C0
:100CE0004D0450914E0460914F0470915004840F54
:100CF000951FA61FB71F80934D0490934E04A09399
:100D00004F04B093500410923C0510923D05109290
:100D10003E0510923F05FF90EF90DF90CF90089531
:100D20001F920F920FB60F9211242F933F938F9320
:100D30009F93AF93BF938091900590919105A0915F
:100D40009205B091930530918B0523E0230F2D3749
:100D500020F40196A11DB11D05C026E8230F0296BF
:100D6000A11DB11D20938B05809390059093910553
:100D7000A0939205B093930580918C0590918D0579
:100D8000A0918E05B0918F050196A11DB11D809394
:100D90008C0590938D05A0938E05B0938F05BF9120
:100DA000AF919F918F913F912F910F900FBE0F9018
:100DB0001F9018951F920F920FB60F9211242F9328
:100DC0003F934F935F936F937F938F939F93AF93D3
:100DD000BF93EF93FF93E0910201F0910301099516
:100DE000FF91EF91BF91AF919F918F917F916F9103
:100DF0005F914F913F912F910F900FBE0F901F90D9
:100E000018951F920F920FB60F9211242F933F93B4
:100E10004F935F936F937F938F939F93AF93BF9302
:100E2000EF93FF93E0910001F09101010995FF918B
:100E3000EF91BF91AF919F918F917F916F915F9152
:100E40004F913F912F910F900FBE0F901F901895CB
:100E50001F920F920FB60F9211242F933F934F932F
:100E60005F936F937F938F939F93AF93BF93EF9312
:100E7000FF9380918A0587FF05C01092850010922C
:100E800084001BC020918A05022E000C330B809138
:100E90001D0490E02817390784F480918A05082EF4
:100EA000000C990BFC01EE0FFF1F8E0F9F1FFC0122
:100EB000E25EFB4F808186FD15C080918A058F5FC1
:100EC00080938A0520918A05022E000C330B8091B5
:100ED0001D0490E028173907C4F480918A058C30EE
:100EE00064F113C080918A05082E000C990BFC0157
:100EF000EE0FFF1F8E0F9F1FFC01E25EFB4F8081F4
:100F000060E08F730E949E04D8CF809184009091FE
:100F10008500049680349C4918F480E49CE905C05F
:100F2000809184009091850004969093890080932D
:100F300088008FEF80938A053BC020918400309118
:100F4000850080918A05082E000C990BFC01EE0F9C
:100F5000FF1F8E0F9F1FFC01E25EFB4F818192817C
:100F6000820F931F909389008093880080918A0557
:100F7000082E000C990BFC01EE0FFF1F8E0F9F1F18
:100F8000FC01E25EFB4F808186FF12C080918A05E2
:100F9000082E000C990BFC01EE0FFF1F8E0F9F1FF8
:100FA000FC01E25EFB4F808161E08F730E949E0432
:100FB000FF91EF91BF91AF919F918F917F916F9131
:100FC0005F914F913F912F910F900FBE0F901F9007
:100FD00018951F920F920FB60F9211242F933F93E3
:100FE0004F935F936F937F938F939F93AF93BF9331
:100FF000EF93FF938091B900887F803609F49CC0FD
:1010000068F5883209F45BC090F4803109F454C06B
:1010100038F4882309F4F6C0883009F44DC0F6C0CE
:10102000883109F44CC0803209F45DC0EFC08034CF
:1010300009F468C048F4803309F455C0883309F0D6
:10104000E5C08093D905D8C0803509F44FC08835F4
:1010500009F45DC0883409F0D9C0D6C0883909F4D4
:10106000C7C0A8F4883709F467C038F4883609F493
:1010700063C0803709F460C0C9C0883809F4B8C0BB
:10108000803909F45FC0803809F0C0C05BC0803B84
:1010900009F486C038F4803A09F466C0883A09F445
:1010A0007FC0B4C0803C09F4A7C0883C09F4A4C048
:1010B000883B09F48AC0AAC08091B60510C09091FF
:1010C000D8058091D705981770F5E091D80581E093
:1010D0008E0F8093D805F0E0E954FA4F8081809319
:1010E000BB0085EC86C08093D9058EC0E091D80501
:1010F00081E08E0F8093D8058091BB00F0E0E95429
:10110000FA4F80839091D8058091D7056EC0E09109
:10111000D80581E08E0F8093D8058091BB00F0E068
:10112000E954FA4F80838091FD0581116DC081E003
:101130008093FC0584EA61C083E08093FE051092F1
:101140008905CFCF80918905803208F051C0E091A8
:10115000890581E08E0F809389058091BB00F0E0C6
:10116000E759FA4F8083BDCF85EC8093BC00109285
:10117000FE0580918905803230F4E0918905F0E028
:10118000E759FA4F10826091890570E0E091B6014D
:10119000F091B70189E695E009951092890536C06E
:1011A00084E08093FE051092680510926705E09137
:1011B000B801F091B901099580916705811105C0C9
:1011C00081E08093670510924705E091680581E012
:1011D0008E0F80936805F0E0E95BFA4F8081809381
:1011E000BB009091680580916705981708F479CF46
:1011F00085E88093BC000AC085EC8093BC00109207
:10120000FE0504C01092D9050E94AD01FF91EF9137
:10121000BF91AF919F918F917F916F915F914F910E
:101220003F912F910F900FBE0F901F901895EF9246
:10123000FF920F931F93CF93DF93EC01909146059C
:101240009F5F292F27702093460590FF02C090E8EA
:1012500001C090E021FD9064247009F0906220E1CB
:10126000290FFE013A967E018DE0E80EF11C00E0A8
:1012700011E06191662331F070E0C8010E943020D6
:101280006F5F01C060E0DF0114976C93322F369FCF
:10129000312D1124CF010797EC013883662311F01B
:1012A00061506C93EE15FF0521F7DF91CF911F91EF
:1012B0000F91FF90EF900895FC018EE291E09183F1
:1012C0008083138212828FEF868387838087818752
:1012D0008287838781E0848716861586158214822B
:1012E00080911B0490911C04892B21F4F0931C0421
:1012F000E0931B04A0913205B0913305109721F0C3
:101300001596FC93EE931497F0933305E093320512
:10131000089520E030E0A901869F412D969F400D61
:10132000511D1124CA0108951F920F920FB60F92FA
:1013300011242F933F934F935F936F937F938F93DA
:101340009F93AF93BF93EF93FF93E0914604F09187
:1013500047040995FF91EF91BF91AF919F918F91B4
:101360007F916F915F914F913F912F910F900FBEA1
:101370000F901F901895AF92BF92DF92EF92FF925D
:101380000F931F93CF93DF9300D0CDB7DEB75C01EF
:10139000F62EE42E29837A830E94900560E4C5012D
:1013A0000E940A05C5010E946D05C5010E949005B5
:1013B0002981237060EC620FC5010E940A05DF2CB1
:1013C0000F2D7A81172F802F8D198E1538F4F80183
:1013D00061918F01C5010E940A05F5CFC5010E94E8
:1013E0006D05C5010E949005F50162816058C50137
:1013F0000E940A05C5010F900F90DF91CF911F91B8
:101400000F91FF90EF90DF90BF90AF900C946D051F
:101410001F920F920FB60F9211242F933F934F9369
:101420005F936F937F938F939F93AF93BF93EF934C
:10143000FF938091BE010E9462042091C00130910F
:10144000C1012F5F3F4F3093C1012093C0019091A4
:101450001A049091BF019330B9F018F4923039F02A
:1014600056C0943051F1953009F44BC050C08111F1
:101470004EC08091C0019091C1018436910508F45D
:1014800042C010921A041BC0813009F040C0E091A4
:101490001A048E0F80931A04F0E08091C00190919D
:1014A000C101EE0FFF1FEE53FE4F91838083109218
:1014B000C1011092C00184E021C0811117C0E091E8
:1014C0001A0481E08E0F80931A04F0E08091C0012D
:1014D0009091C101EE0FFF1FEE53FE4F9183808369
:1014E0001092C1011092C00183E008C08091C00138
:1014F0009091C1018536910550F085E08093BF0140
:1015000006C0811104C01092C1011092C001FF9168
:10151000EF91BF91AF919F918F917F916F915F916B
:101520004F913F912F910F900FBE0F901F901895E4
:101530001F920F920FB60F9211240F931F932F93A8
:101540003F934F935F936F937F938F939F93AF934B
:10155000BF93CF93EF93FF93C0913105C130E9F46E
:1015600082E00E9462048C0183E00E946204801782
:1015700091071CF4C093B3060CC082E00E94620481
:101580008C0183E00E9462040817190734F410925A
:10159000B306C093B40610923105FF91EF91CF913D
:1015A000BF91AF919F918F917F916F915F914F917B
:1015B0003F912F911F910F910F900FBE0F901F9091
:1015C00018953F924F925F926F927F928F929F9267
:1015D000AF92BF92CF92DF92EF92FF920F931F9341
:1015E000CF93DF93CDB7DEB72E970FB6F894DEBF5B
:1015F0000FBECDBF7C016A01F901DC011C968C9104
:101600007A8369835C834B8390819B8791819C87DC
:1016100092819D87813029F4CE0101960E9417099D
:1016200006C01A86198618861F821E821D82002314
:1016300011F083E001C080E08E870E94B105F701C0
:1016400027853089621B730B6A307105B0F3F894FB
:1016500049805A804BB14062842E8BB18F7D8BB90B
:1016600069859E81F62FF91B9F2FFE833E84AB81F7
:10167000BC815C851B850D857D809F80B884AA8494
:1016800029813A81F9012181222321F0392F230F69
:1016900008F42FEF422F459F412D1124F201512CC8
:1016A000472C752D252D352D002C8BB800C047FFFC
:1016B0008BB930817727889400C000C0002C8BB98B
:1016C0003111340D00C0002C8BB800C046FF8BB91F
:1016D00008F43FEF889400C000C000C08BB910FD33
:1016E000730F00C0002C8BB800C045FF8BB97795F5
:1016F000889411FD730F00C000C0002C8BB9779542
:10170000889400C0002C8BB800C044FF8BB912FD38
:10171000730F7795889400C000C0002C8BB913FD1F
:10172000730F00C0002C8BB800C043FF8BB97795B6
:10173000889414FD730F00C000C0002C8BB97795FE
:10174000889400C0002C8BB800C042FF8BB915FDF7
:10175000730F7795889400C000C0002C8BB916FDDC
:10176000730F00C0002C8BB800C041FF8BB9779578
:10177000889417FD730F00C000C0002C8BB97795BB
:10178000889400C0002C8BB800C040FF8BB94194F6
:101790004B0C00C000C000C0002C8BB9472F00C00C
:1017A00000C08BB800C047FF8BB93281772788947F
:1017B00000C000C0002C8BB93111390D00C0002CC5
:1017C0008BB800C046FF8BB908F43FEF889400C087
:1017D00000C000C08BB900FD730F00C0002C8BB897
:1017E00000C045FF8BB97795889401FD730F00C049
:1017F00000C0002C8BB97795889400C0002C8BB862
:1018000000C044FF8BB902FD730F7795889400C028
:1018100000C0002C8BB903FD730F00C0002C8BB8E7
:1018200000C043FF8BB97795889404FD730F00C007
:1018300000C0002C8BB97795889400C0002C8BB821
:1018400000C042FF8BB905FD730F7795889400C0E7
:1018500000C0002C8BB906FD730F00C0002C8BB8A4
:1018600000C041FF8BB97795889407FD730F00C0C6
:1018700000C0002C8BB97795889400C0002C8BB8E1
:1018800000C040FF8BB9E30DF11D8894472F00C0C5
:1018900000C0002C8BB991949A0C00C0002C8BB81E
:1018A00000C047FF8BB931817727889400C000C002
:1018B000002C8BB93111390F00C0002C8BB800C03F
:1018C00046FF8BB908F43FEF889400C000C000C009
:1018D0008BB950FD730F00C0002C8BB800C045FFC2
:1018E0008BB97795889451FD730F00C000C0002C10
:1018F0008BB97795889400C0002C8BB800C044FF4A
:101900008BB952FD730F7795889400C000C0002CEE
:101910008BB953FD730F00C0002C8BB800C043FF80
:101920008BB97795889454FD730F00C000C0002CCC
:101930008BB97795889400C0002C8BB800C042FF0B
:101940008BB955FD730F7795889400C000C0002CAB
:101950008BB956FD730F00C0002C8BB800C041FF3F
:101960008BB97795889457FD730F00C000C0002C89
:101970008BB97795889400C0002C8BB800C040FFCD
:101980008BB99195960F472F00C000C000C08BB94E
:10199000119709F08ACE20EE31E0D6010E94442052
:1019A0004B015C0134E0B694A794979487943A95E0
:1019B000D1F76AE9C6010E948909880E991EA11C07
:1019C000B11C79EE871673E09706A104B10480F18B
:1019D00088EE881A83E0980AA108B10882E0B694DC
:1019E000A794979487948A95D1F767E0C4010E94E1
:1019F00089096091940570E0860E971E880E991EE5
:101A00008091900590919105A0919205B0919305D8
:101A1000292D3327820F931FA11DB11D809390059F
:101A200090939105A0939205B093930580929405AD
:101A300078940E94B105D70150967C936E931F97BE
:101A40002E960FB6F894DEBF0FBECDBFDF91CF91BB
:101A50001F910F91FF90EF90DF90CF90BF90AF90CC
:101A60009F908F907F906F905F904F903F900895E0
:101A70003F924F925F926F927F928F929F92AF921E
:101A8000BF92CF92DF92EF92FF920F931F93CF936B
:101A9000DF93CDB7DEB72E970FB6F894DEBF0FBE3B
:101AA000CDBF7C016A01F901DC011C968C917A831F
:101AB00069835C834B8390819B8791819C87928112
:101AC0009D87813029F4CE0101960E94170906C036
:101AD0001A86198618861F821E821D82002311F025
:101AE00083E001C080E08E870E94B105F701278561
:101AF0003089621B730B6A307105B0F3F89449802A
:101B00005A804BB14860842E8BB1877F8BB9698531
:101B10009E81F62FF91B9F2FFE833E84AB81BC81F3
:101B20005C851B850D857D809F80B884AA84298172
:101B30003A81F9012181222321F0392F230F08F462
:101B40002FEF422F459F412D1124F201512C472C9C
:101B5000752D252D352D002C8BB800C047FF8BB976
:101B600030817727889400C000C0002C8BB93111D8
:101B7000340D00C0002C8BB800C046FF8BB908F4B0
:101B80003FEF889400C000C000C08BB910FD730FF8
:101B900000C0002C8BB800C045FF8BB977958894A6
:101BA00011FD730F00C000C0002C8BB9779588948D
:101BB00000C0002C8BB800C044FF8BB912FD730F1E
:101BC0007795889400C000C0002C8BB913FD730F6B
:101BD00000C0002C8BB800C043FF8BB97795889468
:101BE00014FD730F00C000C0002C8BB9779588944A
:101BF00000C0002C8BB800C042FF8BB915FD730FDD
:101C00007795889400C000C0002C8BB916FD730F27
:101C100000C0002C8BB800C041FF8BB97795889429
:101C200017FD730F00C000C0002C8BB97795889406
:101C300000C0002C8BB800C040FF8BB941944B0C06
:101C400000C000C000C0002C8BB9472F00C000C0EE
:101C50008BB800C047FF8BB932817727889400C0CA
:101C600000C0002C8BB93111390D00C0002C8BB88D
:101C700000C046FF8BB908F43FEF889400C000C055
:101C800000C08BB900FD730F00C0002C8BB800C0E2
:101C900045FF8BB97795889401FD730F00C000C094
:101CA000002C8BB97795889400C0002C8BB800C0AD
:101CB00044FF8BB902FD730F7795889400C000C074
:101CC000002C8BB903FD730F00C0002C8BB800C033
:101CD00043FF8BB97795889404FD730F00C000C053
:101CE000002C8BB97795889400C0002C8BB800C06D
:101CF00042FF8BB905FD730F7795889400C000C033
:101D0000002C8BB906FD730F00C0002C8BB800C0EF
:101D100041FF8BB97795889407FD730F00C000C011
:101D2000002C8BB97795889400C0002C8BB800C02C
:101D300040FF8BB9E30DF11D8894472F00C000C010
:101D4000002C8BB991949A0C00C0002C8BB800C069
:101D500047FF8BB931817727889400C000C0002CE1
:101D60008BB93111390F00C0002C8BB800C046FF71
:101D70008BB908F43FEF889400C000C000C08BB955
:101D800050FD730F00C0002C8BB800C045FF8BB90D
:101D90007795889451FD730F00C000C0002C8BB95B
:101DA0007795889400C0002C8BB800C044FF8BB995
:101DB00052FD730F7795889400C000C0002C8BB93A
:101DC00053FD730F00C0002C8BB800C043FF8BB9CC
:101DD0007795889454FD730F00C000C0002C8BB918
:101DE0007795889400C0002C8BB800C042FF8BB957
:101DF00055FD730F7795889400C000C0002C8BB9F7
:101E000056FD730F00C0002C8BB800C041FF8BB98A
:101E10007795889457FD730F00C000C0002C8BB9D4
:101E20007795889400C0002C8BB800C040FF8BB918
:101E30009195960F472F00C000C000C08BB9119735
:101E400009F08ACE20EE31E0D6010E9444204B01F9
:101E50005C0134E0B694A794979487943A95D1F7AF
:101E60006AE9C6010E948909880E991EA11CB11C4D
:101E700079EE871673E09706A104B10480F188EE2D
:101E8000881A83E0980AA108B10882E0B694A79462
:101E9000979487948A95D1F767E0C4010E948909D5
:101EA0006091940570E0860E971E880E991E8091B1
:101EB000900590919105A0919205B0919305292DDF
:101EC0003327820F931FA11DB11D8093900590931E
:101ED0009105A0939205B093930580929405789410
:101EE0000E94B105D70150967C936E931F972E9652
:101EF0000FB6F894DEBF0FBECDBFDF91CF911F911B
:101F00000F91FF90EF90DF90CF90BF90AF909F9098
:101F10008F907F906F905F904F903F9008951092B8
:101F2000020610920106109200061092FF05109210
:101F3000FE0581E08093FD051092FC0561E082E1E1
:101F40000E949E0461E083E10E949E04E9EBF0E0C0
:101F500080818E7F808380818D7F808388E48093E1
:101F6000B80085E48093BC000895382F2091FF05C8
:101F70009091FB05213208F049C08091FE05811146
:101F8000FCCF42E04093FE053093FD053FEF3093D8
:101F9000D9051092D8052093D705ABEDB5E047EBF6
:101FA00055E0FA013E2F341B321718F43D9131935E
:101FB000F9CF1092B6052091B605990F922B909308
:101FC000B6059091FC05913061F41092FC0590915A
:101FD000B6059093BB009091BC0093FDF8CF95ECB3
:101FE00001C095EE9093BC009091FE059230E1F314
:101FF0009091D9059F3F79F08091D905803241F0C9
:102000008091D905803331F084E005C081E003C0C0
:1020100082E001C083E0109200061092FF0510924A
:10202000DA0508959091FE059111FCCF613208F018
:1020300060E291E09093FE059093FD052FEF2093D1
:10204000D9051092D805260F2093D7059093B60591
:102050009091B605880F892B8093B6058091FC0579
:10206000813061F41092FC058091B6058093BB002D
:102070008091BC0083FDF8CF85EC01C085EE809394
:10208000BC008091FE058130E1F38091D805861770
:1020900010F46091D805A7EBB5E026E935E0F90129
:1020A0008E2F821B861718F48D918193F9CF109291
:1020B000020660930106862F08951F93CF93DF9346
:1020C0001F92CDB7DEB7162F89830E948F0F91E044
:1020D0009093DA059CE49093FB0510920006109211
:1020E000FF058981682F87EA96E00E946B02612FC5
:1020F00087EA96E00E946B0281E00F90DF91CF911A
:102100001F910C94B50F7F928F929F92AF92BF92C6
:10211000CF92DF92EF92FF920F931F93CF93DF93B3
:1021200000D000D0CDB7DEB77C019B01942E00E536
:1021300011E0FE0131967724739440E05F018FE354
:10214000882ED801DE90CE908D01C901B6010E9483
:102150003020CB01009751F4911004C0772011F08A
:10216000433011F4808213C0108211C0A62FAF70CB
:10217000B0E0A85CBE4F5C9150838C9DB0018D9DFA
:10218000700D9C9D700D1124261B370B712C4F5F19
:1021900031964430B1F620E0B501C7010E94BB0979
:1021A0000F900F900F900F90DF91CF911F910F9193
:1021B000FF90EF90DF90CF90BF90AF909F908F9067
:1021C0007F900895CF92DF92EF92FF920F931F932B
:1021D000CF93DF938091B9069091BA06EC012196D6
:1021E000D093BA06C093B90649979CF10E94100695
:1021F0008B019C0188EE93E0C89FB001C99F700DD0
:10220000D89F700D1124072E000C880B990BC090DD
:10221000B506D090B606E090B706F090B806A901D2
:1022200098012C193D094E095F090E943223309311
:10223000A2062093A1061092BA061092B9060E9437
:1022400010066093B5067093B6068093B706909318
:10225000B806DF91CF911F910F91FF90EF90DF9023
:10226000CF900895009769F0FC0101900020E9F7F4
:102270003197AF01481B590BBC0183E096E00C94E9
:102280008C0080E090E0089590930101809300011C
:10229000E9E6F0E080818C7F682B6083E89A0895FE
:1022A00020E0DC0160FF03C001C02D932D9362503C
:1022B000E0F77040D0F70895CF92DF92EF92FF924F
:1022C0000F931F93E82FF92F05C001501109210921
:1022D000310961F1908196239417B9F305C001503B
:1022E00011092109310911F1908196239413F7CF37
:1022F000C12CD12CE12CF12C0AC08FEFC81AD80ABE
:10230000E80AF80A0C151D052E053F0579F08081B5
:102310008623841791F36C2D7D2D8E2D9F2D1F917B
:102320000F91FF90EF90DF90CF90089560E070E004
:1023300080E090E01F910F91FF90EF90DF90CF90A1
:102340000895CF93DF93CDB7DEB7A3970FB6F89478
:10235000DEBF0FBECDBF789484B5826084BD84B5E6
:10236000816084BD85B5826085BD85B5816085BD90
:1023700080916E00816080936E0010928100809148
:1023800081008260809381008091810081608093D0
:102390008100809180008160809380008091B100F5
:1023A00084608093B1008091B00081608093B00020
:1023B00080917A00846080937A0080917A008260B4
:1023C00080937A0080917A00816080937A00809176
:1023D0007A00806880937A001092C100E091130621
:1023E000F091140682E08083E0910F06F0911006D0
:1023F0001082E0911106F091120680E18083109224
:102400001B06E0911706F091180686E08083E091A4
:102410001506F0911606808180618083E091150693
:10242000F0911606808188608083E0911506F09116
:102430001606808180688083E0911506F09116066B
:1024400080818F7D808388E08093BA008FED91E05A
:102450009093B9018093B8018BEE91E09093B7010E
:102460008093B6010E948F0F8BE493E09093BB01A1
:102470008093BA018EEA92E09093BD018093BC01F3
:1024800061E070E08CE196E00E94441180E791E009
:102490000E94321144244394512C9E012F5F3F4FE0
:1024A00019012AE0622E712C80917C0490917D04A8
:1024B000049709F08DC650927B0440927A04809173
:1024C0007004909171048631910521F58091720418
:1024D0008093BE01F89412E01093B0001093B10005
:1024E00084E68093B3001092B20010937000789449
:1024F0001093BF0110921A048091BE0160E00E9407
:10250000CE0464E170E080E090E00E94D605109374
:10251000BF012AC08531910509F0D8C082EC91E055
:1025200090932E0580932D0520911A0430E030936E
:10253000300520932F058091BF01853009F048C6F2
:1025400082E08093BF0110921A04203431054CF0D0
:10255000890104501109A8014770552741155105FB
:1025600031F082E08093BF0110921A0431C684E0FA
:10257000159507958A95E1F780E090E0FA01E85318
:10258000FE4F60817181860F971F4C5F5F4F48320D
:102590005105A1F7B3010E9430207B016B01CC0CE7
:1025A000DD1C46E050E060E070E080E090E0295003
:1025B0003109FA01EE0FFF1FE254FE4FA081B181F5
:1025C000CA16DB0638F40190F081E02D8E0F9F1FB4
:1025D0006F5F7F4F6A30710539F0FA01329642170A
:1025E000530714F4AF01E5CF0E943020EEE1F5E08F
:1025F00020E030E048E050E05A8F498F1082A98CEB
:10260000BA8C47E050E0C5018E539E4FDC018D919E
:102610009C917081C816D90658F488248394912C13
:10262000042E01C0880C0A94EAF7872A80820AC027
:1026300081E090E0042E01C0880F0A94EAF78095AB
:102640007823708341505109B4E0AB0EB11C4F3F69
:102650008FEF5807C1F62F5F3F4F3196A98DBA8D86
:102660009096BA8FA98F2017310741F685E0820F27
:10267000809318058091C4019091C501809319053C
:102680008091C6019091C70180931A05E0921B05C5
:1026900060931C0520931D0582E08093BF0110927A
:1026A0001A0481E080935B04E8E1F5E080E090E0CB
:1026B00001962191DC01A55ABB4F2C9384319105E1
:1026C000B9F7909317058093160582C5813091055F
:1026D00039F4809172040E94620480935A0478C590
:1026E0008230910529F460917404809172042EC0A7
:1026F00083309105B1F4809172040E949A05909301
:102700001505809314059C0197FF02C021503F4F8F
:1027100030935C0460E071E00E94302080935D049F
:1027200057C58430910509F05EC000917404109182
:102730007504E0907204F090730461E08E2D0E94A5
:10274000CE040115110529F460E08E2D0E949E042F
:102750003FC50F3F110509F444C0F701FF27E859B1
:10276000FF4FE491E330F9F048F4E130B9F0E230A2
:10277000A1F584B5806284BD08BD2AC5E730E9F0C3
:10278000E83019F1E43049F580918000806280934F
:10279000800010938B0000938A001AC584B580686E
:1027A00084BD07BD15C5809180008068809380003E
:1027B00010938900009388000BC58091B000806859
:1027C0008093B0000093B30003C58091B000806295
:1027D0008093B0000093B400FBC4003811050CF4E2
:1027E000B3CF61E0B2CF8530910539F460917404C4
:1027F000809172040E94CE04EBC48730910509F0E9
:1028000062C08091580490915904892B09F4E0C466
:102810000091720410917304109313050093120534
:1028200061E0802F0E94CE0460E0802F0E949E0411
:1028300083E090E00197F1F761E0802F0E949E0411
:102840008FE090E00197F1F760E0802F0E949E04F6
:1028500060E0802F0E94CE0461E0802F0E949E04E1
:102860001127F801E656FF4F6491F801EA57FF4F30
:10287000E491F0E0EE0FFF1FE458FF4F8591949133
:1028800000E412E42FE030E0462F0E945C11611555
:1028900071058105910549F0DC01CB010196A11D6F
:1028A000B11DBC01CD019F7003C060E070E0CB01A1
:1028B0002AE330E040E050E00E94C9223093560401
:1028C000209357044BC28830910541F481E08093F6
:1028D0005C0482E080935D0486E0B0C084319105A1
:1028E00009F0AFC08091110581110FC060E087E051
:1028F0000E945D1060E088E00E945D1061E087E06A
:102900000E945D1081E08093110580E48B838A83AF
:1029100089830E9410066B017C018091010690E082
:1029200020910206821B91091816190674F40E9460
:102930001006DC01CB018C199D09AE09BF09853F4A
:102940009140A105B1054CF36FC087EA96E00E9463
:102950001F0263E070E08CE490E00E9412100E947D
:1029600010066B017C0181019091010680910206A5
:10297000981781F1C801821993090397DCF40E942A
:1029800010066B017C01F8018081803498F087EAA1
:1029900096E00E941F02D8018C930E941006DC0171
:1029A000CB018C199D09AE09BF09C397A105B105DB
:1029B00054F33AC00E9410060F5F1F4FDC01CB0199
:1029C0008C199D09AE09BF09853F9140A105B1054C
:1029D0005CF22AC0298144E0249F90011124822FB7
:1029E00027FF02C083E0820F8595859580930E05B1
:1029F0002A8154E0259F90011124822F27FF02C0D5
:102A000083E0820F8595859580930F052B8184E067
:102A1000289F90011124822F27FF02C083E0820F9C
:102A2000859585958093100580910E0580935C04B3
:102A300080910F0580935D048091100580935E0462
:102A4000C7C38E31910509F0AAC080910D0581118F
:102A500005C00E948F0F81E080930D0581E0809377
:102A6000DA0588E68093FB05109200061092FF05B8
:102A700060E087EA96E00E946B0281E00E94B50F59
:102A800067E070E088E690E00E94121087EA96E026
:102A90000E941F02982F9695969596959E70292FC5
:102AA000220F220F920F8F70890F8093050587EAFE
:102AB00096E00E941F02982F92959F708F70AAE057
:102AC0009A9F800D11248093060587EA96E00E9464
:102AD0001F02982F9695969596959670292F220FFE
:102AE000220F920F8F70890F8093070587EA96E077
:102AF0000E941F02982F92959F708F70BAE09B9F43
:102B0000800D11248093080587EA96E00E941F0239
:102B1000982F92959F708F70EAE09E9F800D1124F0
:102B20008093090587EA96E00E941F02982F9295EC
:102B30009F708F70FAE09F9F800D112480930A058B
:102B400087EA96E00E941F02982F92959F708F70DF
:102B50002AE0929F800D1124282F30E030930C053D
:102B600020930B059091070590935C0490910605C6
:102B700090935D049091050590935E0490910A05F1
:102B800090935F0490910905909360048093610491
:102B900090936204809108058093630419C38E3674
:102BA000910509F06DC08091030590910405892B72
:102BB00009F00EC38091580490915904892B09F4AF
:102BC00007C387E791E00E943211009176041091CB
:102BD0007704109302050093010501383AE21307C8
:102BE00030F4C801880F991F800F911F02C08FEF2A
:102BF0009FEF0E9481207C01909304058093030540
:102C0000809172049091730483309105D1F4809186
:102C10008F04811111C08EE794E00E945C0910922C
:102C20008E0410928D0482E191E090937F04809352
:102C30007E0481E080938F04A801B7018EE794E0C1
:102C40001CC0059709F08AC08091A804811111C0A9
:102C500087E994E00E945C091092A7041092A604F0
:102C600080E291E0909398048093970481E08093B0
:102C7000A804A801B70187E994E00E94CB1F6EC0A9
:102C80008037910509F045C08091030590910405B6
:102C9000892B09F49DC2409174044C8F1B8E809047
:102CA0007604909077048B8D9C8D882A992A1092B7
:102CB00000051092FF041B8A1C8A1D8A8091A306BE
:102CC0009091A406A091A506B091A606892B8A2B07
:102CD0008B2B09F43FC30E94B1050091B004109101
:102CE000B1042091B2043091B304DC01CB01801B0C
:102CF000910BA20BB30B0091A3061091A406209197
:102D0000A5063091A60680179107A207B307B0F277
:102D100021C38F36910539F5809103059091040503
:102D2000892B09F455C28091580490915904892B3C
:102D300009F44EC280E891E00E94321180910305AF
:102D400090910405009711F00E941621109204053D
:102D50001092030510920205109201051092590479
:102D60001092580435C28837910509F095C08091BA
:102D7000FD049091FE04892B09F02AC28091580429
:102D800090915904892B09F423C28CE891E00E94A8
:102D9000321183E090E00E9481208C0120911D047B
:102DA0002C3098F481E0820F80931D04D8012C937D
:102DB00030E0F901EE0FFF1FE20FF31FE25EFB4F61
:102DC00088EB9BE09283818303C08FEFF8018083BF
:102DD0001093FE040093FD04F0907204D8018C91CE
:102DE0008C3008F0BBCF61E08F2D0E94CE04F8013B
:102DF0008081282F30E0A901440F551F240F351F73
:102E0000F901E25EFB4F9F2D9F732081207CF22E03
:102E1000F92AF082D80111961C92119712961C92F1
:102E20006CE00E942420BCE08B9FB001112440E0A4
:102E300050E09A01260F371FF901EE0FFF1F2E0FEA
:102E40003F1FF901E25EFB4F908196FD16C04F5F78
:102E50005F4F4C30510569F781110FC0109280000F
:102E600082E0809381001092850010928400B19AD4
:102E700080916F00826080936F00F801808190E004
:102E80009C01220F331F820F931FFC01E25EFB4F58
:102E900080818064808362CF8937910559F5809164
:102EA000FD049091FE04892B09F492C1809158048D
:102EB00090915904892B09F48BC18AE991E00E9411
:102EC00032118091FD049091FE04DC012C9130E0E0
:102ED000A901440F551F240F351FF901E25EFB4F76
:102EE00020812F7B20830E9416211092FE041092D5
:102EF000FD0434CF8A37910509F0F8C08091FD04B4
:102F00009091FE04892B09F463C18091740490911F
:102F100075041C8A1B8A1E8A1D8A188E1F8A4AE025
:102F2000B1010E949422F10101900020E9F731974C
:102F30008F0102191309B801CE0143960E94D103F3
:102F4000811105C0CE0143960E94F80307C0188F77
:102F50000F8BB1018B899C890E948D221A82198264
:102F60001C821B821E821D826CE070E0C1010E94E7
:102F7000D103811104C0C1010E94F8030AC08CE092
:102F800090E09E838D8368EA71E089819A810E9436
:102F90008D228F89988DEB88FC880D811E81E1142C
:102FA000F10409F41AC30097A1F0080F191FB80122
:102FB000C1010E94D103882309F40FC329813A81FA
:102FC0008D819E81B701820F931F0E948D221E83E7
:102FD0000D830D811E810F5F1F4FB801C1010E943B
:102FE000D103882309F4A3C629813A818D819E816A
:102FF0006AE871E0820F931F0E948D221E830D8369
:103000004D815E8169817A8183E096E00E948C0027
:1030100089819A810E9416218B899C890E941621A0
:10302000A0917404B0917504A53BB10508F0D0C01F
:10303000E091FD04F091FE0492818181F080EBE04B
:10304000EF1508F44CC028E532E06901C91AD1082F
:1030500097FDD394CC0CDD1CCC0CDD1C08E810E0F3
:10306000081B110987FD1395000F111F000F111F79
:103070004801012E000CAA08BB08A6010D2C000C6B
:10308000660B770B9A01AB01281939094A095B09CC
:103090000E94F32224EB30E040E050E00E94C9227D
:1030A000820E931EA41EB51E801691062CF084017C
:1030B000C814D9040CF4860102501109000F111F25
:1030C0004FB7F8948F2D90E09C01220F331F820F91
:1030D000931FFC01E25EFB4F128301834FBF6FE041
:1030E00070E080E090E00E94D60572C086349105C1
:1030F00029F580917204909173048C01025011099A
:103100009801220F331F020F131F05511B4FD801C7
:103110008C9391E0980F11969C9360E00E94CE04EE
:1031200060E0F80181810E94CE0460E0D8018C91BA
:103130000E949E0460E0F801818108CB87349105EC
:1031400009F05DC2809172049091730402979C0112
:10315000220F331FF901E80FF91FE551FB4F4081A2
:1031600041113FC235C0D8011C96BC91B9A38091D2
:10317000A1069091A2068436910510F4F8011486F8
:10318000D801ED91FC91228133813BA32AA31982BE
:103190001A821B82D110EAC1D8011D964D915C9113
:1031A0001E9712966D917C9113979101C801EAA127
:1031B000FBA10995E9A1D8011C96EC931C971496E4
:1031C0000D911C9115970115110569F60E94E210E9
:1031D0008091C8049091C904892BD9F10E941006EE
:1031E0000091C4041091C5042091C6043091C70415
:1031F000DC01CB01801B910BA20BB30B81339547F4
:10320000A105B10530F150925404409253048091CD
:103210004D0490914E04A0914F04B09150048093BE
:10322000C0049093C104A093C204B093C30410924D
:103230004D0410924E0410924F04109250040E94BC
:1032400010066093C4047093C5048093C6049093E1
:10325000C7048091BE049091BF04892B39F18091FD
:10326000B406813019F52091B3068091B60490918F
:10327000B704213049F401968931910554F0109238
:10328000B7041092B60409C0019797FF02C088E105
:1032900090E09093B7048093B60481E080934B0450
:1032A0008091B60480934C041092B4068091B804C7
:1032B0009091B904892B09F44AC00E94100600912C
:1032C000BA041091BB042091BC043091BD04DC0110
:1032D000CB01801B910BA20BB30B813D9740A10545
:1032E000B105A8F120915104309152044EE1429F62
:1032F000C001439F900D112469E470E00E943020CA
:10330000E62F472F6093B4047093B50481E0809357
:103310004804862F972F60E071E00E943020809350
:1033200049042E2F342F37FF02C021503F4F3093D6
:103330004A0410925204109251040E9410066093A5
:10334000BA047093BB048093BC049093BD040E94A4
:103350007901AAC80E94B1056093B0047093B104CA
:103360008093B2049093B30400911B0410911C0449
:103370000115110531F1D8011C96FC901C97809124
:10338000A1069091A2068436910510F41C961C9219
:10339000D801ED91FC9111970190F081E02D1982F7
:1033A0001A821B821D964D915C911E979101BE0160
:1033B0006D5E7F4FC8010995F801F486048115817F
:1033C000D7CF0E94E21000911B0410911C0401153C
:1033D0001105B1F0D80112968D919C911397009729
:1033E00059F01D966D917C911E979B01220F331F02
:1033F000620F731F0E945011F80104811581E7CFFD
:10340000E0900105F09002056091030570910405BC
:10341000C090FF04D090000580E090E007E010E04D
:10342000A0E0B0E02FEF55EAB52E38EFE0E8AE2E81
:10343000FC01EC0DFD1DAE15BF053CF0F093000541
:10344000E093FF04D090A00672C0A530B105B1F39F
:10345000A801482159210E2E02C0559547950A947E
:10346000E2F74130510531F4FB01E80FF91F1082FA
:10347000A18208C04230510539F4FB01E80FF91F61
:103480002083118212822EC04330510531F4FB019A
:10349000E80FF91F20832183F5CF4430510531F423
:1034A000FB01E80FF91F108211821BC04530510546
:1034B00031F4FB01E80FF91F3083318312C046302D
:1034C000510531F4FB01E80FF91F2083B182DACFF7
:1034D0004730510509F0B2CFFB01E80FF91F108208
:1034E0002183228343E0000F111F4A95E1F71196D3
:1034F00003969ECF0E94B1050091B0041091B104D3
:103500002091B2043091B304DC01CB01801B910BFC
:10351000A20BB30B0091A3061091A4062091A5065F
:103520003091A60680179107A207B30760F4809137
:10353000A3069091A406A091A506B091A606892B9A
:103540008A2B8B2BB9F60E94B1056093B00470935F
:10355000B1048093B2049093B30400911B041091C2
:103560001C048D2C912CA12CB12C2DCEF801399658
:1035700071019801245F3F4F3A8F298FDF01139724
:10358000CC902191CC2001F12223F1F0822F90E008
:10359000A0E0B0E09C01AD012F5F3F4F4F4F5F4F68
:1035A000C501B4010E9414209B01AC018C2D90E058
:1035B000A0E0B0E0BC01CD016F5F7F4F8F4F9F4F08
:1035C0000E941420D7018C93BFEFEB1AFB0A298DC0
:1035D0003A8DE217F30791F6DFCDC1010E94F8039F
:1035E000F8CC40917404483040F4485F820F931F38
:1035F000FC01E551FB4F4283EBCD4FE0F7CF883420
:103600009105F9F4809172049091730402979C01E2
:10361000220F331F820F931F85519B4FDC012C918A
:10362000222309F4D5CD309176043E8F1D8E609112
:103630007404709175044D8D5E8D6427752740E08C
:1036400021C08934910509F5809172049091730429
:1036500002979C01220F331F820F931F85519B4FAE
:10366000FC012081222309F4B3CD5091760458A3A4
:103670001F8E6091740470917504AF8DB8A16A2794
:103680007B2741E00E948310A3CD8A349105C9F4C1
:10369000809172049091730402979C01220F331F52
:1036A000820F931F85519B4FDC012C91222309F43B
:1036B0008FCDE0917604EF70F0E0E85CFE4F208162
:1036C00016C08B349105C1F48091720490917304FB
:1036D00002979C01220F331F820F931F85519B4F2E
:1036E000FC012081222309F473CD209176042983E3
:1036F0002091740441E0AEC08C34910509F040C0C3
:10370000E0917204F09173043297CF01880F991FF2
:10371000E80FF91FE551FB4F8081882309F458CD4C
:103720008091740490917504B3010E9430206F70F1
:10373000A62FB0E0A85CBE4F9C9199838F70A82FF4
:10374000B0E0A85CBE4F8C9180688A83809176043B
:1037500090917704B3010E9430206F70A62FB0E0E3
:10376000A85CBE4F9C919B838F70A82FB0E0A85C93
:10377000BE4F8C918C8320E044E0B101CF016BC03F
:103780008D34910599F5E0917204F09173043297AC
:10379000CF01880F991FE80FF91FE551FB4F80817A
:1037A000882309F415CDB09074040091760410912B
:1037B0007704000F111F000F111FE12CF12C6F0176
:1037C000E016F1060CF004CD8B2D0E949A0540E026
:1037D000BC01C6010E9483106AEF70E080E090E0B7
:1037E0000E94D605FFEFEF1AFF0AEACF8E3491054B
:1037F000B9F4809172049091730402979C01220F96
:10380000331F820F931F85519B4FDC012C91222384
:1038100009F4DECC2FEF29832A832B832C8318C055
:103820008F349105D9F480917204909173040297BA
:103830009C01220F331F820F931F85519B4FFC0168
:103840002081222309F4C4CC19821A821B821C8293
:1038500020E044E0B1010E94BB09BACC8A35910551
:10386000A1F48091580490915904892B09F4B0CCAB
:10387000809172048093E804809174048093E90439
:10388000809176048093EA0469CA8B359105E9F446
:103890008091580490915904892B09F499CC609136
:1038A00072047091730441E0460F9B01225031096C
:1038B00055E0529FC001539F900D11242091740434
:1038C00086539B4F0E94561F49CA8C35910509F0BB
:1038D0003FC08091580490915904892B09F478CC09
:1038E000A0907404B0907504609172047091730498
:1038F0009B012250310945E0429FC001439F900D3A
:1039000011249C0126533B4F690141E0460F2A2DAB
:10391000C6010E94561F1091760412FB992490F85C
:10392000919411FB882480F8819411701195E12CF9
:10393000F12CEA14FB040CF011CA012F282D492D9B
:103940006E2DC6010E94C71E3FEFE31AF30AF1CFA6
:103950008D35910509F06EC08091580490915904FD
:10396000892B09F435CCC0907404D09075048091F3
:10397000720490917304C114D104B1F49C012250DB
:10398000310945E0429FC001439F900D11240091F1
:10399000EA042091E9044091E8046091760486539A
:1039A0009B4F0E94C71EDAC9029745E0489F9001CD
:1039B000499F300D1124F901E653FB4FA280E12C01
:1039C000F12CB12C1E2F9F2EEA14FB040CF0C6C95B
:1039D00041E0C416D10441F48091760490917704BB
:1039E000E816F906C1F422C052E0C516D10441F42C
:1039F00080917604909177048E159F0564F416C02B
:103A000083E0C816D10491F48091760490917704F4
:103A1000E816F9065CF00091EA042091E90440916F
:103A2000E8046E2D812F992D0E94C71E9FEFE91A81
:103A3000F90ACACF8E35910509F048C08091580423
:103A400090915904892B09F4C3CB8091760490910D
:103A500077041816190624F05092770440927604E1
:103A600020917204309173042250310945E0429F45
:103A7000C001439F900D1124FC01E653FB4FC2800F
:103A8000A0907404B09075047501D12C1E2F9F2E48
:103A9000EC14FD040CF062C9609176047091770417
:103AA000C7018A199B090E943020892B59F4009183
:103AB000EA042091E9044091E8046E2D812F992DAC
:103AC0000E94C71EAFEFEA1AFA0AE2CF8F359105BE
:103AD00009F062C08091580490915904892B09F42F
:103AE00077CB8091720490917304029725E0289F10
:103AF000F001299FF00D1124E653FB4FC280809105
:103B0000760490917704D12C892B11F5E12CF12CBE
:103B10001E2FBF2EEC14FD040CF020C980917404FC
:103B200090917504E816F9063CF40091EA0420919E
:103B3000E9044091E80403C000E020E040E06E2D7D
:103B4000812F9B2D0E94C71EBFEFEB1AFB0AE2CF0D
:103B500076011E2FBF2EE114F10409F4FFC88091F5
:103B6000740490917504F601E81BF90BEE16FF063C
:103B70003CF00091EA042091E9044091E80403C07C
:103B800000E020E040E06E2D812F9B2D0E94C71E9B
:103B9000F1E0EF1AF108DFCF8E309105A9F461E072
:103BA00070E08CE196E00E9444115092C90440926A
:103BB000C8040E9410066093C4047093C5048093E7
:103BC000C6049093C704AEC08F30910561F4E898A5
:103BD0002CEA31E030930101209300011092C904D6
:103BE0001092C8049FC08A30910531F58091580425
:103BF00090915904019709F0EBCA80915304809386
:103C00005B048091C0049091C104A091C204B09162
:103C1000C30480935C04492F5A2F6B2F772740935E
:103C2000C0045093C1046093C2047093C3044093D2
:103C30005D04A0935E0492C880319105C1F5109295
:103C4000800080E18093810021E0209344048FB7BD
:103C500080934504F89440E45FE15093430440931B
:103C600042045093870040938600809145048FBFA3
:103C700080918100887F8093810090918100809164
:103C80004404982B90938100ABE8B4E0B0934704D0
:103C9000A093460420936F0090918100892B80931C
:103CA000810078945092BF044092BE043BC08131A1
:103CB000910551F480916F008E7F80936F00109278
:103CC000BF041092BE0484CA82319105E9F460E019
:103CD00082E00E94CE0463E070E084EA92E00E94F9
:103CE000441110925204109251040E9410066093E5
:103CF000BA047093BB048093BC049093BD045092AB
:103D0000B9044092B8040EC00D9709F061CA109230
:103D1000B9041092B804E898ECEAF1E0F0930101DC
:103D2000E0930001109271041092700451CAC10115
:103D30000E94F80365C9EF92FF920F931F93CF93F0
:103D4000DF93EC01062F18E08BE4E82EF12C07FF3F
:103D500002C061E001C060E089810E949E0460E0D1
:103D600088810E949E04C7010197F1F761E0888174
:103D70000E949E04C7010197F1F7000F115039F717
:103D8000DF91CF911F910F91FF90EF9008954F9287
:103D90005F926F927F928F929F92AF92BF92CF92DB
:103DA000DF92EF92FF920F931F93CF93DF93EC017B
:103DB000962E842E722E60E00E949B1E60E0CE0143
:103DC0000E949B1E60E0CE010E949B1E60E0CE011F
:103DD0000E949B1E83E0989E5001112475018FEF75
:103DE000E81AF80A650182E0C80ED11C10E08A8149
:103DF000181708F03BC019110FC0EB81FC81EA0DC8
:103E0000FB1D8082EB81FC81EE0DFF1D7082EB813A
:103E1000FC81EC0DFD1D0083EB81FC8183E0189F8C
:103E2000E00DF11D112442805180608047FC02C0EA
:103E300060EE01C060EC46FE606157FE686056FEB1
:103E4000646067FE626066FE6160CE010E949B1E38
:103E5000642DCE010E949B1E652DCE010E949B1EEB
:103E6000662DCE010E949B1E1F5FC1CF60E0CE0178
:103E70000E949B1E60E0CE010E949B1E60E0CE016E
:103E80000E949B1E60E0CE01DF91CF911F910F91A8
:103E9000FF90EF90DF90CF90BF90AF909F908F906A
:103EA0007F906F905F904F900C949B1E0F931F9389
:103EB000CF93DF93EC01862F688349832A8361E0E7
:103EC0000E94CE0461E089810E94CE048A8161E073
:103ED00070E023E0829FC00111240E9465209C8332
:103EE0008B8310E08A81181748F400E020E040E05E
:103EF000612FCE010E94C71E1F5FF4CFDF91CF91CB
:103F00001F910F910895E3E0F6E01382128288EE8C
:103F100093E0A0E0B0E084839583A683B78324E593
:103F200031E03183208325EC30E03587248724EC91
:103F300030E03787268720EC30E0318B208B21EC76
:103F400030E0338B228B22EC30E0358B248B26EC57
:103F500030E0378B268B118E128E138E148EE0EA92
:103F6000F6E02FEF208312821182E7EAF6E0138257
:103F7000128284839583A683B78384E691E091833C
:103F8000808384E0809368008BB381718BBB8CE06D
:103F900080936D000895EF92FF920F931F93CF933C
:103FA000DF93EC017B018A01E881F9810480F581CE
:103FB000E02D0995FB82EA821E870D87E881F98151
:103FC0000084F185E02DCE010995009729F19C012F
:103FD00040E050E060E472E48FE090E00E94C9228B
:103FE000722F632F0091A3061091A4062091A506BD
:103FF0003091A606872F962FDA0180179107A20726
:10400000B30710F4D901C8018093A3069093A406C6
:10401000A093A506B093A606CE01DF91CF911F9184
:104020000F91FF90EF900895DB018F939F930E9473
:10403000E822BF91AF91A29F800D911DA39F900D8B
:10404000B29F900D11240895991B79E004C0991F27
:10405000961708F0961B881F7A95C9F780950895E2
:1040600097FB072E16F4009407D077FD09D00E9425
:104070004B2007FC05D03EF4909581959F4F089505
:10408000709561957F4F08950E945423B7FF08955E
:10409000821B930B0895AA1BBB1B51E107C0AA1FEB
:1040A000BB1FA617B70710F0A61BB70B881F991FD9
:1040B0005A95A9F780959095BC01CD010895EE0F12
:1040C000FF1F0590F491E02D09940F931F93CF9358
:1040D000DF93869F8001879F100D969F100D1124FE
:1040E000C8010E948120EC01009729F0A80160E03E
:1040F00070E00E948622CE01DF91CF911F910F9137
:104100000895CF93DF938230910510F482E090E020
:10411000E091BD06F091BE0620E030E0C0E0D0E0C6
:10412000309711F14081518148175907C0F0481765
:10413000590761F482819381209719F09B838A83C8
:104140002BC09093BE068093BD0626C02115310575
:1041500019F04217530718F49A01BE01DF01EF016D
:104160000280F381E02DDCCF2115310509F1281BF8
:10417000390B2430310590F412968D919C91139750
:104180006115710521F0FB019383828304C0909334
:10419000BE068093BD06FD01329644C0FD01E20FCC
:1041A000F31F81939193225031092D933C933AC090
:1041B0002091BB063091BC06232B41F420910601CF
:1041C000309107013093BC062093BB062091040177
:1041D000309105012115310541F42DB73EB74091CD
:1041E000080150910901241B350BE091BB06F091A9
:1041F000BC06E217F307A0F42E1B3F0B2817390764
:1042000078F0AC014E5F5F4F2417350748F04E0F32
:104210005F1F5093BC064093BB068193919302C0ED
:10422000E0E0F0E0CF01DF91CF9108950F931F936D
:10423000CF93DF93009709F48CC0FC01329713826F
:1042400012820091BD061091BE060115110581F480
:1042500020813181820F931F2091BB063091BC06D3
:104260002817390779F5F093BC06E093BB0671C0B7
:10427000D80140E050E0AE17BF0750F412962D91E0
:104280003C911397AD012115310509F1D901F3CF07
:104290009D01DA013383228360817181860F971F2C
:1042A0008217930769F4EC0128813981260F371FA3
:1042B0002E5F3F4F318320838A819B81938382834A
:1042C000452B29F4F093BE06E093BD0642C0139639
:1042D000FC93EE931297ED01499159919E01240FA1
:1042E000351FE217F30771F480819181840F951FC8
:1042F000029611969C938E938281938113969C9340
:104300008E931297E0E0F0E0D80112968D919C9187
:104310001397009719F0F8018C01F6CF8D919C91BD
:1043200098012E5F3F4F820F931F2091BB06309163
:10433000BC062817390769F4309729F41092BE0695
:104340001092BD0602C0138212821093BC06009325
:10435000BB06DF91CF911F910F910895A0E0B0E0CF
:10436000E4EBF1E20C94FF22EC01009721F4CB0185
:104370000E948120B8C0FC01E60FF71F9C0122506B
:104380003109E217F30708F4ACC0D9010D911C9173
:10439000119706171707B0F00530110508F49FC0F4
:1043A000C80104978617970708F499C002501109AD
:1043B000061B170B019311936D937C93CF010E9401
:1043C00016218DC05B01A01AB10A4C01800E911E0E
:1043D000A091BD06B091BE0640E050E0E12CF12C6A
:1043E000109709F44AC0A815B905D1F56D907C90D5
:1043F0001197630182E0C80ED11CCA14DB0480F15E
:10440000A3014A195B096A0182E0C80ED11C129609
:10441000BC9012971396AC91B5E0CB16D10440F046
:10442000B282A38351834083D9016D937C930AC0E8
:104430000E5F1F4FC301800F911FF901918380838D
:10444000EB2DFA2FE114F10431F0D7011396FC9310
:10445000EE93129744C0F093BE06E093BD063FC0B2
:104460008D919C9111974817590708F4AC017D0173
:1044700012960D90BC91A02DB3CF8091BB06909168
:10448000BC0688159905E1F446175707C8F48091D2
:10449000040190910501009741F48DB79EB74091BA
:1044A000080150910901841B950BE817F907C8F41E
:1044B000F093BC06E093BB06F901718360830FC0E3
:1044C000CB010E9481207C01009759F0A801BE0118
:1044D0000E947D22CE010E941621C70104C0CE0198
:1044E00002C080E090E0CDB7DEB7EEE00C941B2375
:1044F00081E090E0F8940C946323FB01DC0102C09E
:1045000001900D9241505040D8F70895DC0101C050
:104510006D9341505040E0F70895FB01DC0101909C
:104520000D920020E1F70895BB274A3031F499231A
:1045300022F4BDE2909581959F4F0C94A022BB2759
:10454000FB015527AA27880F991FAA1FA41710F04F
:10455000A41B83955051B9F7A05DAA3308F0A95D5B
:10456000A193009779F7B111B1931192CB010C94FB
:10457000B922DC01FC01672F71917723E1F73297B3
:1045800004C07C916D9370836291AE17BF07C8F32E
:104590000895052E97FB1EF400940E94E02257FD1B
:1045A00007D00E94322307FC03D04EF40C94E02283
:1045B00050954095309521953F4F4F4F5F4F08954F
:1045C00090958095709561957F4F8F4F9F4F08957F
:1045D0000E945423A59F900DB49F900DA49F800D21
:1045E000911D11240895B7FF0C94E8220E94E8223F
:1045F000821B930B08952F923F924F925F926F927E
:104600007F928F929F92AF92BF92CF92DF92EF9262
:10461000FF920F931F93CF93DF93CDB7DEB7CA1BE3
:10462000DB0B0FB6F894DEBF0FBECDBF09942A880E
:10463000398848885F846E847D848C849B84AA84B6
:10464000B984C884DF80EE80FD800C811B81AA8143
:10465000B981CE0FD11D0FB6F894DEBF0FBECDBF0E
:10466000ED010895A1E21A2EAA1BBB1BFD010DC08E
:10467000AA1FBB1FEE1FFF1FA217B307E407F50712
:1046800020F0A21BB30BE40BF50B661F771F881FEE
:10469000991F1A9469F760957095809590959B0184
:1046A000AC01BD01CF010895A29FB001B39FC0012D
:1046B000A39F700D811D1124911DB29F700D811D4E
:0A46C0001124911D0895F894FFCF16
:1046CA00AC01AC010000BF06800001000000000040
:1046DA000000A603A0039D0287039A0200000000BF
:1046EA00CB03C503A202AC039F02000000008503AE
:1046FA0085038503850382033F065B4F666D7D074D
:10470A007F6F777C395E797101000A006400E803E3
:10471A000000000010018C00D900B700CB0057013F
:10472A00000000006B023B0233021F0210020F025C
:10473A0073657475700A006C622D696E69740A007B
:10474A006C622D72656C656173650A0073657276B9
:10475A006F2D6174746163680A00736572766F2DD8
:10476A006465746163680A00736572766F2D777287
:06477A00697465200000D7
:107800000C94343C0C94513C0C94513C0C94513CE1
:107810000C94513C0C94513C0C94513C0C94513CB4
:107820000C94513C0C94513C0C94513C0C94513CA4
:107830000C94513C0C94513C0C94513C0C94513C94
:107840000C94513C0C94513C0C94513C0C94513C84
:107850000C94513C0C94513C0C94513C0C94513C74
:107860000C94513C0C94513C11241FBECFEFD8E036
:10787000DEBFCDBF11E0A0E0B1E0ECE9FFE702C060
:1078800005900D92A230B107D9F712E0A2E0B1E065
:1078900001C01D92AD30B107E1F70E942D3D0C945F
:1078A000CC3F0C94003C982F959595959595959582
:1078B000905D8F708A307CF0282F295A8091C0000B
:1078C00085FFFCCF9093C6008091C00085FFFCCF60
:1078D0002093C6000895282F205DF0CF982F809127
:1078E000C00085FFFCCF9093C6000895EF92FF92F1
:1078F0000F931F93EE24FF2487018091C00087FD22
:1079000017C00894E11CF11C011D111D81E4E8164B
:1079100082E4F8068FE0080780E0180770F3E09132
:107920000401F091050109958091C00087FFE9CF1E
:107930008091C6001F910F91FF90EF9008950E94D3
:10794000763C982F8091C00085FFFCCF9093C600B5
:1079500091362CF490330CF09053892F089597555D
:10796000892F08951F930E949F3C182F0E949F3CCF
:107970001295107F810F1F9108951F93182F882350
:1079800021F00E94763C1150E1F71F9108951F935A
:10799000182F0E94763C803249F0809103018F5F5E
:1079A000809303018530C1F01F9108958091C0003C
:1079B00085FFFCCF84E18093C6008091C00085FFE5
:1079C000FCCF1093C6008091C00085FFFCCF80E102
:1079D0008093C6001F910895E0910401F091050184
:1079E00009951F9108950E94763C803241F0809164
:1079F00003018F5F80930301853081F008958091AA
:107A0000C00085FFFCCF84E18093C6008091C00058
:107A100085FFFCCF80E18093C6000895E0910401CA
:107A2000F09105010995089540E951E08823A1F0FE
:107A30002D9A28EE33E0FA013197F1F721503040CA
:107A4000D1F72D9828EE33E0FA013197F1F7215064
:107A50003040D1F7815061F708953F924F925F9285
:107A60006F927F928F929F92AF92BF92CF92DF924E
:107A7000EF92FF920F931F93CF93DF93000080E16B
:107A80008093C4001092C50088E18093C10086E015
:107A90008093C2005098589A259A81E00E94143D24
:107AA00024E1F22E9EE1E92E85E9D82E0FE0C02ECA
:107AB00010E1B12EAA24A394B1E49B2EA6E58A2E50
:107AC000F2E57F2EE0E26E2E79E4572E63E5462E36
:107AD00050E5352E0E94763C8033B1F18133B9F107
:107AE000803409F46FC0813409F476C0823409F41B
:107AF00085C0853409F488C0803531F1823521F1A3
:107B0000813511F1853509F485C0863509F48DC0BC
:107B1000843609F496C0843709F403C1853709F423
:107B200072C1863709F466C0809103018F5F80932C
:107B30000301853079F6E0910401F0910501099582
:107B40000E94763C803351F60E94F33CC3CF0E94E2
:107B5000763C803249F78091C00085FFFCCFF092DF
:107B6000C6008091C00085FFFCCF9092C600809136
:107B7000C00085FFFCCF8092C6008091C00085FFC9
:107B8000FCCF7092C6008091C00085FFFCCF609250
:107B9000C6008091C00085FFFCCF5092C600809146
:107BA000C00085FFFCCF4092C6008091C00085FFD9
:107BB000FCCF3092C6008091C00085FFFCCFB09210
:107BC000C60088CF0E94763C863808F4BDCF0E945C
:107BD000763C0E94F33C7ECF0E94763C803809F4CC
:107BE0009CC0813809F40BC1823809F43CC1883942
:107BF00009F48FC080E00E94C73C6CCF84E10E94F2
:107C0000BD3C0E94F33C66CF85E00E94BD3C0E94D3
:107C1000F33C60CF0E94763C809306010E94763C44
:107C2000809307010E94F33C55CF0E94763C80333D
:107C300009F41DC183E00E94BD3C80E00E94C73C66
:107C400049CF0E94763C809309020E94763C809343
:107C5000080280910C028E7F80930C020E94763C79
:107C6000853409F415C18091080290910902892B8D
:107C700089F000E010E00E94763CF801E85FFE4FDA
:107C800080830F5F1F4F80910802909109020817AF
:107C9000190788F30E94763C803209F045CF809125
:107CA0000C0280FF01C16091060170910701660F0F
:107CB000771F7093070160930601A0910802B091AD
:107CC00009021097C9F0E8E0F1E09B01AD014E0F09
:107CD0005F1FF999FECF32BD21BD819180BDFA9A17
:107CE000F99A2F5F3F4FE417F50799F76A0F7B1F4B
:107CF00070930701609306018091C00085FFFCCF5F
:107D0000F092C6008091C00085FFFCCFB092C60003
:107D1000E1CE83E00E94C73CDDCE82E00E94C73CFA
:107D2000D9CE0E94763C809309020E94763C8093D3
:107D300008028091060190910701880F991F909386
:107D40000701809306010E94763C853409F4A6C0A1
:107D500080910C028E7F80930C020E94763C8032D0
:107D600009F0B8CE8091C00085FFFCCFF092C6002C
:107D7000609108027091090261157105B9F140E046
:107D800050E080910C02A82FA170B82FB27011C0E2
:107D9000BB2309F45CC0E0910601F0910701319624
:107DA000F0930701E09306014F5F5F4F46175707B7
:107DB000E8F4AA2369F3F999FECF209106013091E6
:107DC000070132BD21BDF89A90B58091C00085FFB2
:107DD000FCCF9093C6002F5F3F4F30930701209355
:107DE00006014F5F5F4F4617570718F38091C00099
:107DF00085FDE5CE8091C00085FFF8CFE0CE81E023
:107E00000E94C73C67CE0E94763C803209F08CCE3F
:107E10008091C00085FFFCCFF092C6008091C00029
:107E200085FFFCCFE092C6008091C00085FFFCCFAB
:107E3000D092C6008091C00085FFFCCFC092C600E2
:107E40008091C00085FFFCCFB092C60043CEE09188
:107E50000601F091070194918091C00085FFFCCF4D
:107E60009093C6009CCF80E10E94C73C33CE0E9415
:107E7000763C0E94763C182F0E94763C112309F430
:107E800083C0113009F484C08FE00E94C73C22CE29
:107E900080910C02816080930C02E5CE80910C02EF
:107EA000816080930C0259CF809107018823880F4D
:107EB000880B8A2180930B02809106019091070123
:107EC000880F991F90930701809306018091080203
:107ED00080FF09C080910802909109020196909359
:107EE000090280930802F894F999FECF1127E091D6
:107EF0000601F0910701C8E0D1E08091080290915D
:107F00000902103091F40091570001700130D9F34B
:107F100003E000935700E89500915700017001308D
:107F2000D9F301E100935700E89509901990009169
:107F3000570001700130D9F301E000935700E89534
:107F40001395103498F011270091570001700130FB
:107F5000D9F305E000935700E895009157000170B0
:107F60000130D9F301E100935700E895329602976A
:107F700009F0C7CF103011F00296E5CF112480919F
:107F8000C00085FFB9CEBCCE8EE10E94C73CA2CD19
:0C7F900085E90E94C73C9ECDF894FFCF0D
:027F9C00800063
:040000030000780081
:00000001FF
